{
  "contractName": "MyToken",
  "abi": [
    {
      "constant": false,
      "inputs": [
        {
          "name": "to",
          "type": "address"
        },
        {
          "name": "amount",
          "type": "uint256"
        }
      ],
      "name": "sendTokens",
      "outputs": [],
      "payable": false,
      "stateMutability": "nonpayable",
      "type": "function"
    },
    {
      "constant": true,
      "inputs": [
        {
          "name": "_address",
          "type": "address"
        }
      ],
      "name": "checkBalance",
      "outputs": [
        {
          "name": "",
          "type": "uint256"
        }
      ],
      "payable": false,
      "stateMutability": "view",
      "type": "function"
    },
    {
      "constant": true,
      "inputs": [],
      "name": "getCentralBankBalance",
      "outputs": [
        {
          "name": "",
          "type": "uint256"
        }
      ],
      "payable": false,
      "stateMutability": "view",
      "type": "function"
    },
    {
      "constant": false,
      "inputs": [
        {
          "name": "amount",
          "type": "uint256"
        }
      ],
      "name": "requestFromMint",
      "outputs": [],
      "payable": false,
      "stateMutability": "nonpayable",
      "type": "function"
    },
    {
      "inputs": [
        {
          "name": "circulatingSupply",
          "type": "uint256"
        }
      ],
      "payable": false,
      "stateMutability": "nonpayable",
      "type": "constructor"
    }
  ],
  "bytecode": "0x6060604052341561000f57600080fd5b6040516020806105118339810160405280805190602001909190505033600260006101000a81548173ffffffffffffffffffffffffffffffffffffffff021916908373ffffffffffffffffffffffffffffffffffffffff1602179055508060018190555080600080600260009054906101000a900473ffffffffffffffffffffffffffffffffffffffff1673ffffffffffffffffffffffffffffffffffffffff1673ffffffffffffffffffffffffffffffffffffffff1681526020019081526020016000208190555050610429806100e86000396000f300606060405260043610610062576000357c0100000000000000000000000000000000000000000000000000000000900463ffffffff16806305ab421d146100675780635f515226146100a95780637868eb4d146100f65780639a614ba71461011f575b600080fd5b341561007257600080fd5b6100a7600480803573ffffffffffffffffffffffffffffffffffffffff16906020019091908035906020019091905050610142565b005b34156100b457600080fd5b6100e0600480803573ffffffffffffffffffffffffffffffffffffffff1690602001909190505061021b565b6040518082815260200191505060405180910390f35b341561010157600080fd5b610109610263565b6040518082815260200191505060405180910390f35b341561012a57600080fd5b61014060048080359060200190919050506102cb565b005b6000339050816000808373ffffffffffffffffffffffffffffffffffffffff1673ffffffffffffffffffffffffffffffffffffffff16815260200190815260200160002054036000808373ffffffffffffffffffffffffffffffffffffffff1673ffffffffffffffffffffffffffffffffffffffff16815260200190815260200160002081905550816000808573ffffffffffffffffffffffffffffffffffffffff1673ffffffffffffffffffffffffffffffffffffffff16815260200190815260200160002060008282540192505081905550505050565b60008060008373ffffffffffffffffffffffffffffffffffffffff1673ffffffffffffffffffffffffffffffffffffffff168152602001908152602001600020549050919050565b6000806000600260009054906101000a900473ffffffffffffffffffffffffffffffffffffffff1673ffffffffffffffffffffffffffffffffffffffff1673ffffffffffffffffffffffffffffffffffffffff16815260200190815260200160002054905090565b8080600080600260009054906101000a900473ffffffffffffffffffffffffffffffffffffffff1673ffffffffffffffffffffffffffffffffffffffff1673ffffffffffffffffffffffffffffffffffffffff168152602001908152602001600020541015156103f457816000803373ffffffffffffffffffffffffffffffffffffffff1673ffffffffffffffffffffffffffffffffffffffff1681526020019081526020016000206000828254019250508190555081600080600260009054906101000a900473ffffffffffffffffffffffffffffffffffffffff1673ffffffffffffffffffffffffffffffffffffffff1673ffffffffffffffffffffffffffffffffffffffff168152602001908152602001600020600082825403925050819055506103f9565b600080fd5b50505600a165627a7a7230582033c5a73f9ba0f8b58362cd811dcee921937d4f6f97bf34e5e05751369efe79640029",
  "source": "pragma solidity^0.4.18;\n\ncontract MyToken {\n    \n    mapping(address=> uint) balances;\n    uint totalSupply;\n    address centralBank;\n    mapping(address => string) names;\n    \n    \n    function MyToken(uint circulatingSupply) {\n        centralBank = msg.sender;\n        totalSupply = circulatingSupply;\n        balances[centralBank] = circulatingSupply;\n    }\n    \n    function checkBalance(address _address) constant returns (uint) {\n        return balances[_address];\n    }\n    \n    function sendTokens(address to, uint amount) public {\n        address sender = msg.sender;\n        balances[sender] = balances[sender] - amount;\n        balances[to] += amount;\n    }\n    \n    modifier hasFunds(address to, uint amt) {\n        if (balances[to] >= amt) {\n            _;\n        } else {\n            throw;\n        }\n    }\n    \n    modifier fundsAreLoanable(uint amt) {\n        if (balances[centralBank] >= amt) {\n            _;\n        } else {\n            throw;\n        }\n    }\n    \n    function requestFromMint(uint amount) fundsAreLoanable(amount) public {\n        balances[msg.sender] += amount;\n        balances[centralBank] -= amount;\n    }\n    \n    function getCentralBankBalance() constant returns (uint) {\n        return balances[centralBank];\n    }\n    \n}",
  "sourcePath": "/Users/Ryan/Desktop/SimpleToken/contracts/MyToken.sol",
  "compiler": {
    "name": "solc",
    "version": "0.4.18+commit.9cf6e910.Emscripten.clang"
  },
  "schemaVersion": "1.0.1",
  "updatedAt": "2018-03-31T17:49:33.452Z"
}